:020000040800F2
:100000000804002055040008B5040008B5040008E1
:10001000B5040008B5040008B5040008000000009D
:10002000000000000000000000000000B50400080F
:10003000B504000800000000B5040008B50400087D
:10004000B5040008B5040008B5040008B5040008AC
:10005000B5040008B5040008B5040008B50400089C
:10006000B5040008B5040008B5040008B50400088C
:10007000B5040008B5040008B5040008B50400087C
:10008000B5040008B5040008B5040008B50400086C
:10009000B5040008B5040008B5040008B50400085C
:1000A000B5040008B5040008B5040008B50400084C
:1000B000B50400086D060008B5040008B504000882
:1000C000B5040008B5040008B5040008B50400082C
:1000D000B5040008B5040008B5040008B50400081C
:1000E000B5040008B5040008B504000800000000CD
:1000F0000000000000000000000000000000000000
:1001000000000000000000005FF808F180B485B036
:1001100000AF786039600023FB817B681B88FB811E
:100120007B682E4A934213D07B682D4A93420FD0AE
:100130007B68B3F1804F0BD07B682A4A934207D08B
:100140007B68294A934203D07B68284A934208D1AE
:10015000FB8923F07003FB813B685A88FB891343BA
:10016000FB817B68224A93420CD07B68214A9342F0
:1001700008D0FB8923F44073FB813B68DA88FB8954
:100180001343FB817B68FA891A803B689A887B68F5
:100190009A853B681A887B681A857B680F4A934268
:1001A0000FD07B680E4A93420BD07B68124A934271
:1001B00007D07B68114A934203D07B68104A934270
:1001C00004D13B681B7A9AB27B681A867B6801224D
:1001D0009A8200BF1437BD4680BC7047002C014096
:1001E000003401400004004000080040000C0040C2
:1001F0000010004000140040004001400044014055
:100200000048014080B483B000AF78600B46FB70BB
:10021000FB78002B08D07B681B889BB243F001035E
:100220009AB27B681A8007E07B681B889BB223F038
:1002300001039AB27B681A8000BF0C37BD4680BCB0
:10024000704780B483B000AF78600B467B80134664
:100250007B707B78002B08D07B689B899AB27B8867
:1002600013439AB27B689A8109E07B689B899AB2B2
:100270007B88DB439BB213409AB27B689A8100BFB4
:100280000C37BD4680BC704780B485B000AF786045
:100290000B467B800023FB737B681B8A9AB27B88AA
:1002A00013409BB2002B02D00123FB7301E000231B
:1002B000FB73FB7B18461437BD4680BC704780B487
:1002C00083B000AF78600B467B807B88DB439AB2BB
:1002D0007B681A8200BF0C37BD4680BC70470000A7
:1002E00080B500AF154A154B1B6843F0010313603E
:1002F0001249124B5A68124B13404B600F4A0F4B76
:100300001B6823F0847323F4803313600B4A0B4B78
:100310001B6823F480231360084A084B5B6823F4AE
:10032000FE035360054B4FF41F029A6000F00CF877
:10033000044B4FF000629A6000BF80BD0010024085
:100340000000FFF800ED00E080B500AF00F002F81B
:1003500000BF80BD80B483B000AF00237B6000236A
:100360003B603A4A394B1B6843F480331360374B88
:100370001B6803F400333B607B6801337B603B68A0
:10038000002B03D17B68B3F5A06FF0D12F4B1B6816
:1003900003F40033002B02D001233B6001E0002373
:1003A0003B603B68012B4BD1294A294B1B6843F02A
:1003B00010031360264A264B1B6823F003031360C7
:1003C000234A234B1B6843F0020313601F4A1F4B51
:1003D0005B6853601D4A1D4B5B6853601B4A1B4B97
:1003E0005B6843F480635360184A184B5B6823F4DE
:1003F0007C135360154A154B5B6843F4E813536054
:10040000124A124B1B6843F08073136000BF0F4BFE
:100410001B6803F00073002BF9D00C4A0B4B5B6890
:1004200023F003035360094A084B5B6843F002035F
:10043000536000BF054B5B6803F00C03082BF9D138
:1004400000BF0C37BD4680BC704700BF00100240A3
:100450000020024080B582B000AF114B7B60114B91
:100460003B6007E03B681A1D3A607A68111D7960AD
:1004700012681A603B680C4A9342F3D30B480C494C
:100480004FF000028842B8BF40F8042BFADBFFF7B8
:1004900027FF00F007F900BF0837BD4680BD00BF49
:1004A0008408000800000020000000200000002058
:1004B0000400002080B400AFFEE780B489B000AF34
:1004C000786039600023FB6100233B610023BB613E
:1004D0000023FB6000237B610023BB603B68DB786B
:1004E00003F00F03FB613B68DB7803F01003002B84
:1004F00005D03B689B781A46FB691343FB613B6858
:100500001B88DBB2002B44D07B681B687B61002317
:10051000BB6138E00122BB6902FA03F3FB603B6870
:100520001B881A46FB6813403B613A69FB689A4294
:1005300026D1BB699B00FB600F22FB6802FA03F324
:10054000BB60BB68DB437A6913407B61FA69FB6877
:1005500002FA03F37A6913437B613B68DB78282B4B
:1005600005D10122BB699A407B685A6108E03B686B
:10057000DB78482B04D10122BB699A407B681A6161
:10058000BB690133BB61BB69072BC3D97B687A693F
:100590001A603B681B88FF2B46D97B685B687B61D0
:1005A0000023BB613AE0BB690833012202FA03F37E
:1005B000FB603B681B881A46FB6813403B613A6945
:1005C000FB689A4227D1BB699B00FB600F22FB6846
:1005D00002FA03F3BB60BB68DB437A6913407B61BB
:1005E000FA69FB6802FA03F37A6913437B613B689B
:1005F000DB78282B05D1BB69083301229A407B6840
:100600005A613B68DB78482B05D1BB69083301226E
:100610009A407B681A61BB690133BB61BB69072BD8
:10062000C1D97B687A695A6000BF2437BD4680BC57
:10063000704780B483B000AF78600B467B807A88C7
:100640007B681A6100BF0C37BD4680BC704780B420
:1006500083B000AF78600B467B807A887B685A61F4
:1006600000BF0C37BD4680BC7047000080B500AFAE
:1006700001210A48FFF708FE0346002B0BD0012199
:100680000648FFF71CFE064B1B78DBB283F0010324
:10069000DAB2034B1A7000BF80BD00BF00040040F7
:1006A0000000002080B586B000AF0121102000F0CE
:1006B0004BF80121022000F065F84FF40053BB8293
:1006C0001023FB750323BB7507F1140319461B4860
:1006D000FFF7F3FE4FF4E1533B8100237B814FF49E
:1006E0007A73BB810023FB8107F108031946144884
:1006F000FFF70CFD012201211148FFF7A2FD1D2388
:100700003B7100237B710123FB713B1D184600F0F8
:1007100057F801210A48FFF775FD0A4B1B78DBB239
:10072000002B05D04FF400510448FFF782FFF4E797
:100730004FF400510148FFF78AFFEEE70010014037
:10074000000400400000002080B483B000AF786057
:100750000B46FB70FB78002B06D00949084B9A69C1
:100760007B6813438B6106E00549054B9A697B68FA
:10077000DB4313408B6100BF0C37BD4680BC704724
:100780000010024080B483B000AF78600B46FB706D
:10079000FB78002B06D00949084BDA697B681343C4
:1007A000CB6106E00549054BDA697B68DB43134002
:1007B000CB6100BF0C37BD4680BC704700100240C3
:1007C00080B487B000AF786000237B6100233B6179
:1007D0000F23FB607B68DB78002B3AD0274BDB686C
:1007E000DB431B0A03F007037B617B69C3F104034E
:1007F0003B61FA687B6922FA03F3FB607B685B78F4
:100800001A463B6902FA03F37B617B689B781A46C0
:10081000FB6813407A6913437B617B691B017B6131
:10082000174A7B681B787969C9B213440A4683F872
:100830000023134A7B681B785B09DBB218467B6890
:100840001B7803F01F03012101FA03F342F8203063
:100850000FE00B497B681B785B09DBB218467B68AD
:100860001B7803F01F0301229A4000F1200341F896
:10087000232000BF1C37BD4680BC704700ED00E060
:0408800000E100E0B3
:0400000508000000EF
:00000001FF
